:020000040800F2
:1000000000000120C5020008CB020008CF02000852
:1000100041030008450300088D03000800000000AC
:10002000000000000000000000000000D5030008F0
:10003000D903000800000000DD030008250D0008BA
:10004000F1030008F1030008F1030008F1030008C0
:10005000F1030008F1030008DD080008F9080008B2
:10006000F1030008F1030008F1030008F1030008A0
:10007000F1030008F1030008F1030008F103000890
:10008000F1030008F1030008F1030008000000007C
:10009000000000000000000000000000F103000864
:1000A000F1030008F1030008F1030008F103000860
:1000B000F1030008F1030008F1030008F103000850
:1000C000F1030008F1030008F1030008F103000840
:1000D000F1030008C90D0008F1030008000000004A
:1000E000F1030008F1030008F1030008000000001C
:1000F000000000000000000000000000F103000804
:1001000000000000F1030008F1030008F1030008FB
:1001100000000000000000000000000000000000DF
:10012000F1030008F1030008F1030008F1030008DF
:10013000F1030008000000000000000000000000C3
:10014000000000000000000000000000F1030008B3
:10015000F1030008F1030008F1030008F1030008AF
:10016000F1030008F1030008000000000000000097
:10017000000000000000000000000000000000007F
:1001800000000000F1030008000000000000000073
:10019000F103000800B583B000F0BAF9384B394AD2
:1001A0001360394A1360394900E02146384B9942BF
:1001B0000BD20A684B6801F10C0488689842F4D9A4
:1001C0001168196004330432F8E72E4B1A68314B7A
:1001D0009A4200D0FEE72C4B1A682F4B9A42F9D175
:1001E000274B2E4A13602E4A13602E4B05E0002049
:1001F000106004329342FAD80B462B4A934204D241
:10020000194651F8082B5B68F4E7244B1B6813B9B7
:10021000234B1B6803B1FEE700F086F9694601A88D
:1002200000F022F9214C224BE41AA4100025AC4224
:1002300014DC204C204BE41AA4100025AC4213DC43
:100240000099019800F0C8FD05461C4C1C4BE41AAF
:10025000A410002C0EDC284600F0E2F8144B53F8F2
:10026000253098470135E2E7134B53F8253098477E
:100270000135E3E7013C124B53F824309847E8E797
:10028000BABADECA0000002074000020F40300089F
:100290000C04000878563412325476987800002006
:1002A000200100200C0400081C0400081C040008A5
:1002B0001C0400081C0400081C0400081C0400089E
:1002C0001C04000808B5FFF765FF00BEFEE71EF03E
:1002D000040F0CBFEFF30880EFF309807146414A29
:1002E00010472DE9F04182B004468846124B5E6B00
:1002F0009F6B9D6A1B6B13F0020F03D00E4BDB6AE2
:10030000002B0CDB0D4800F0B7F8CDF800803B4621
:1003100032462946204600F00BF900BEFEE74BF6B8
:10032000AB6100F07FF90028ECD0034B4FF00042A6
:10033000DA6202B0BDE8F08100ED00E0F4170008D9
:1003400000BEFEE71EF0040F0CBFEFF30880EFF3D2
:1003500009807146244A10472DE9F04182B00446D5
:100360008846084B5E6B9F6B9D6A074800F084F8D7
:10037000CDF800803B4632462946204600F0D8F8AA
:1003800000BEFEE700ED00E0041800081EF0040FB8
:100390000CBFEFF30880EFF309807146134A104752
:1003A0002DE9F04182B004468846084B5E6B9F6B96
:1003B0009D6A074800F060F8CDF800803B46324661
:1003C0002946204600F0B4F800BEFEE700ED00E04C
:1003D0001018000800BEFEE700BEFEE700BEFEE704
:1003E00070470000E302000859030008A103000859
:0403F00000BEFEE766
:1003F400781F02080000002078000020781F0208FF
:1004040000000010000000107800002024010020EB
:080414000000001000000010C0
:10042000FEE7000008B503460C4A12685AB10B4AB1
:100430001068033323F003030344094A934206D8A8
:10044000064A136008BD054A06491160EFE700F04F
:10045000C9FC0C2303604FF0FF30F3E77C00002061
:1004600000FC00202401002001230360014B0B60ED
:10047000704700BF040000200FB400B583B004AB88
:1004800053F8042B01938021064800F0DDFC00287E
:1004900003DD0146034800F037F803B05DF804EBD4
:1004A00004B07047840000202DE9F04385B0044675
:1004B0000F4643560BB10E461EE004252846214642
:1004C000ABBE0446384605B0BDE8F08314F9011B05
:1004D00004AA1A4402F8101C0133AB42F6D304AA52
:1004E0001344002203F8102C4FF00408E94640465C
:1004F0004946ABBE8046761B002EE3D03546102E13
:1005000028BF10250023E8E708B5FFF7CDFF08BD99
:1005100008B500F097F8024A024B9A6008BD00BF88
:100520000000000800ED00E008B500F0ABF808BDE1
:10053000F8B504460D4617461E462748FFF79CFFB0
:1005400021682648FFF798FF61682548FFF794FF68
:10055000A1682448FFF790FFE1682348FFF78CFF6C
:1005600021692248FFF788FF61692148FFF784FF6E
:10057000A1692048FFF780FFE1691F48FFF77CFF72
:100580001E48FFF779FF29461D48FFF775FF1D4CF0
:10059000E16A1D48FFF770FF216B1C48FFF76CFFF5
:1005A000E16B1B48FFF768FF15F0800F0AD115F4C7
:1005B000004F0CD11748FFF75FFF06991648FFF769
:1005C0005BFFF8BD39461548FFF756FFEFE73146A8
:1005D0001348FFF751FFEDE7D8160008E8160008AA
:1005E000F816000808170008181700082817000850
:1005F000381700084817000858170008681700083F
:100600007417000800ED00E0841700089417000834
:10061000A4170008D4170008DC170008B417000856
:10062000C417000883691A888A4201D000207047E5
:100630000268033A012A03D802338361012070471C
:10064000002070470C4B1A6842F001021A6000212A
:1006500099601A6822F0847222F480321A60074A84
:100660005A601A6822F480221A60D960044B4FF055
:1006700000629A60704700BF0038024010300024CA
:1006800000ED00E0224B9B6803F00C03042B14D018
:10069000082B16D01BB11F4B1F4A1A6002E01D4BDE
:1006A0001D4A1A601A4B9B68C3F303131B4AD15CA3
:1006B000184A1368CB4013607047164B184A1A60EB
:1006C000F0E7134B5A685B6803F03F0312F4800FA6
:1006D00013D0134AB2FBF3F20D4B5B68C3F38813DC
:1006E00003FB02F30A4A5268C2F30142013252008C
:1006F000B3FBF2F3074A1360D4E7074AB2FBF3F205
:10070000034B5B68C3F3881303FB02F3EAE700BF04
:10071000003802400C0000200024F40020180008DB
:1007200040787D0138B500220121104600F0ACF977
:1007300000250FE005EB4500C0EB0010204401212F
:10074000084B184400F022FB0134E4B22C2CF1D900
:100750000135ADB240F688339D4201D80024F5E75B
:1007600038BD00BF3018000808B500F0BFFA0021FE
:10077000084600F063FA0421032000F05FFA0E211E
:10078000032000F05BFA00221146104600F0C2F888
:1007900001221146002000F0BDF801220021084688
:1007A00000F0F6F801220021084600F02FF902229D
:1007B0000921002000F0AEF802220A21002000F0FA
:1007C000A9F807220921002000F0E0F907220A21F8
:1007D000002000F0DBF900F0B7FA00F0EDFA01219B
:1007E000002000F021F80021084600F041F80748F9
:1007F00000F06EF8002000F00DF8062000F012FA6C
:1008000001221146002000F03FF908BD250700082D
:10081000FEE7000003490B68012202FA00F00343DF
:100820000B607047003C014001290BD011B1022937
:1008300010D070470D498B68012202FA00F018436E
:10084000886070470949CB68012202FA00F018431A
:10085000C8607047054A9168012303FA00F001431C
:100860009160D3681843D060704700BF003C0140DE
:10087000032829D8DFE800F0020B151F134B1A6874
:1008800022F00F021A601A681143196070470F4B6B
:100890001A6822F0F0021A601A6842EA011119601F
:1008A00070470A4B1A6822F470621A601A6842EAAA
:1008B000012119607047054B1A6822F470421A60D2
:1008C0001A6842EA01311960704700BF08380140D8
:1008D000014B1860704700BF0401002008B5044BAD
:1008E0001B689847034A536943F00103536108BDED
:1008F00004010020003C014008B5044B1B689847E8
:10090000034A536943F00203536108BD0801002004
:10091000003C014005282DD8DFE800F0030A11183B
:100920001F261548036849008A401A430260704731
:100930001248036849008A401A4302607047104811
:10094000036849008A401A43026070470D480368F3
:1009500049008A401A43026070470B480368490007
:100960008A401A43026070470848036849008A4079
:100970001A430260704700BF0000024000040240BA
:1009800000080240000C024000100240001C02401F
:1009900005282DD8DFE800F0030A11181F26154896
:1009A000836849008A401A4382607047124883680E
:1009B00049008A401A4382607047104883684900A2
:1009C0008A401A43826070470D48836849008A4014
:1009D0001A43826070470B48836849008A401A4373
:1009E000826070470848836849008A401A438260E1
:1009F000704700BF000002400004024000080240AF
:100A0000000C024000100240001C024005282DD8B6
:100A1000DFE800F0030A11181F261548C3684900D3
:100A20008A401A43C26070471248C36849008A402E
:100A30001A43C26070471048C36849008A401A438D
:100A4000C26070470D48C36849008A401A43C260BB
:100A500070470B48C36849008A401A43C260704718
:100A60000848C36849008A401A43C260704700BF03
:100A7000000002400004024000080240000C024056
:100A800000100240001C0240012A06D0052870D840
:100A9000DFE800F03A434C555E67052869D8DFE887
:100AA00000F0030B131B232B32484369012202FA87
:100AB00001F11943416170472F484369012202FA4D
:100AC00001F11943416170472C484369012202FA40
:100AD00001F119434161704729484369012202FA33
:100AE00001F119434161704726484369012202FA26
:100AF00001F119434161704723484369012202FA19
:100B000001F11943416170471A484369012202FA11
:100B100001F123EA0101416170471748436901224D
:100B200002FA01F123EA0101416170471348436968
:100B3000012202FA01F123EA0101416170471048E4
:100B40004369012202FA01F123EA01014161704780
:100B50000C484369012202FA01F123EA01014161D3
:100B6000704709484369012202FA01F123EA0101B1
:100B7000416170470000024000040240000802404A
:100B8000000C024000100240001C024007291DD842
:100B900001280BD010B1022810D070471E48036AFC
:100BA000890002FA01F11943016270471B48036A88
:100BB000890002FA01F11943016270471848036A7B
:100BC000890002FA01F119430162704710B401284B
:100BD0000ED018B1022815D010BC70470E4C606AB8
:100BE00001F007039B0002FA03F101436162F3E79E
:100BF0000A4C606A01F007039B0002FA03F101430B
:100C00006162E9E70648436A01F00701890002FAD8
:100C100001F119434162DFE7000002400004024095
:100C20000008024000F01F02400901239340024ADD
:100C300042F82030704700BF00E100E0072844D8A8
:100C4000DFE800F0040C141C242C343C1F4803681B
:100C5000012202FA01F11943016070471C48036840
:100C6000012202FA01F11943016070471948036833
:100C7000012202FA01F11943016070471648036826
:100C8000012202FA01F11943016070471348036819
:100C9000012202FA01F1194301607047104803680C
:100CA000012202FA01F11943016070470D480368FF
:100CB000012202FA01F11943016070470A480368F2
:100CC000012202FA01F119430160704730380240F5
:100CD0003438024040380240443802405038024024
:100CE000543802406038024064380240074A1368B2
:100CF00043F001031360064B1A6822F001021A60E8
:100D00001A6822F002021A60704700BF00380240E1
:100D100008380240024B1868C0F30040704700BF1B
:100D200010E000E000B583B000238DF80730054BDC
:100D30001B689847FFF7EEFF8DF8070003B05DF8DA
:100D400004FB00BF0C0100200F4B8B229A60DA6875
:100D50006FF3CF32DA60DA686FF30C32DA60DA6898
:100D60006FF38A22DA601A6922F480521A611A69D2
:100D700022F400521A61DA6842F00802DA60DA6896
:100D800042F00402DA6070470010014000228A42FB
:100D90000ED210B4845C074B5C60064B1B6813F0EA
:100DA000800FFAD00132D2B28A42F3D310BC70471E
:100DB000704700BF00100140024AD36843F400535B
:100DC000D36070470010014008B5024B1B6898477C
:100DD00008BD00BF1001002008B5FFF7C5FCFFF7F4
:100DE00017FD08BD014B1868704700BF10000020B8
:100DF00030B5141E05469BB0184605DA8B232B60D0
:100E00004FF0FF301BB030BD4FF40273ADF80C3023
:100E100014BF04F1FF332346029305934FF6FF738B
:100E200000910491ADF80E3002461E9B694628469B
:100E300000F072F8431CBCBF8B232B60002CE1D068
:100E4000009B00221A70DDE707B5009313460A469F
:100E5000014603480068FFF7CBFF03B05DF804FBD1
:100E6000100000202DE9F0478E689E4282460C4615
:100E70009046994637D88A8912F4906F31D0256808
:100E800009696F1A6569022305EB450595FBF3F5C2
:100E900009F101033B449D4238BF1D46530530D53F
:100EA000294600F07FFB064650B90C23CAF80030F3
:100EB000A38943F04003A3814FF0FF30BDE8F087E2
:100EC0003A46216900F0FCFAA38923F4906343F0C9
:100ED0008003A381266165613E44ED1B2660A56009
:100EE0004E464E4500D94E4632464146206800F0F7
:100EF000F2FAA3689B1BA36023681E4426600020AF
:100F0000DCE72A4600F0A8FB06460028E2D121696A
:100F1000504600F0F9FAC8E72DE9F04F9DB0804641
:100F200003938B891D060C4616460FD50B696BB9CA
:100F3000402100F037FB2060206128B90C23C8F85D
:100F400000304FF0FF30C7E0402363610023099376
:100F500020238DF8293030238DF82A304FF0010BF3
:100F600037463D4615F8013B0BB1252B3ED1B7EB7B
:100F7000060A0BD05346324621464046FFF772FF21
:100F8000013000F0A480099B534409933B78002B67
:100F900000F09D8000234FF0FF32CDE9052304933C
:100FA00007938DF853301A932F46052217F8011B2B
:100FB0004F4800F035FA049BD0B9D90644BF20222F
:100FC0008DF853201A0744BF2B228DF853202A781E
:100FD0002A2A15D0079A2F4600200A25394611F8EB
:100FE000013B303B092B4DD9B8B10FE02F46B8E794
:100FF0003F4A801A0BFA00F0184304903D46D3E7AD
:10100000039A111D12680391002A01DB079204E084
:10101000524243F00203079204933B782E2B0CD1EB
:101020007B782A2B33D1039B1A1D1B680392002B5C
:10103000B8BF4FF0FF33023705932E4D39780322A6
:10104000284600F0EDF938B14023401B03FA00F0C8
:10105000049B034301370493397827488DF82810FF
:1010600006227E1C00F0DCF9002838D0234B13BB8D
:10107000039B073323F0070308330393099B4B4477
:1010800009936DE705FB023201200F46A6E7002316
:101090000137059319460A25384610F8012B303AD6
:1010A000092A03D9002BC8D00591C6E705FB012109
:1010B00001230746F0E703AB00932246104B04A937
:1010C0004046AFF30080B0F1FF3F8146D6D1A389FF
:1010D0005B063FF536AF09981DB0BDE8F08F03AB56
:1010E00000932246064B04A9404600F081F8EAE747
:1010F000451F02084B1F02084F1F02080000000096
:10110000650E00082DE9F04791461F468A680B6975
:10111000DDF820809342B8BF1346C9F8003091F83B
:10112000432006460C4612B10133C9F8003023684B
:10113000990642BFD9F800300233C9F8003025685B
:1011400015F0060507D104F1190AE368D9F8002063
:101150009B1AAB4228DC94F843302268003318BF56
:10116000012392062DD404F1430239463046C0478C
:10117000013020D02368E568D9F8002003F0060389
:10118000042B08BFAD1AA36822690CBF25EAE575D8
:1011900000259342C4BF9B1AED184FF000091A3482
:1011A0004D451AD1002008E0012352463946304609
:1011B000C047013003D14FF0FF30BDE8F087013563
:1011C000C3E7E1185A1C302081F84300224494F808
:1011D000451082F843100233C5E701232246394601
:1011E0003046C0470130E6D009F10109D8E70000D8
:1011F0002DE9F04301F1430C0C46097E85B06E29C0
:101200001746064698460C9A00F0B38022D8632908
:1012100036D00AD8002900F0B980582900F0838020
:1012200004F1420584F8421032E0642901D06929B2
:10123000F6D120681368050603F104012AD51B685E
:101240001160002B03DA2D225B4284F843206F48A3
:101250000A2239E0732900F09D8008D86F2920D038
:101260007029DDD1236843F02003236003E0752952
:1012700017D07829D4D1782384F84530644855E0D4
:101280001368191D1B68116004F1420584F842308F
:1012900001238CE01B68116010F0400F18BF1BB2D7
:1012A000CFE713682568181D1060280601D51B6854
:1012B00002E06806FBD51B8854486F2914BF0A2238
:1012C0000822002184F843106568A560002DC0F253
:1012D0009580216821F004012160002B3DD1002D73
:1012E00040F08E806546082A0BD12368DB0708D5BD
:1012F000236962689A42DEBF302305F8013C05F19C
:10130000FF35ACEB05032361CDF800803B4603AA13
:1013100021463046FFF7F6FE01304DD14FF0FF3049
:1013200005B0BDE8F083394884F84510136821689A
:101330001D1D1B6815600A060BD5CA0744BF41F086
:10134000200121601BB9226822F0200222601022B5
:10135000B7E74D0648BF9BB2EFE76546B3FBF2F136
:1013600002FB1133C35C05F8013D0B460029F5D1A2
:10137000B9E7136825686169181D106028061B68A5
:1013800001D5196002E06A06FBD5198000232361AC
:101390006546B9E71368191D11601D686268002170
:1013A000284600F03DF808B1401B60606368236187
:1013B000002384F84330A7E723692A46394630469C
:1013C000C0470130AAD023689B0713D4E068039B71
:1013D0009842B8BF1846A3E701234A46394630462B
:1013E000C04701309AD00135E368039A9B1AAB429B
:1013F000F2DCEBE7002504F11909F5E7002BACD18D
:10140000037884F8423004F142056CE7561F020865
:10141000671F02080000000000000000000000003C
:1014200001F0FF01102A2BDB10F0070F08D010F895
:10143000013B013A8B422DD010F0070F42B3F6D199
:10144000F0B441EA012141EA014122F007047FF0B2
:1014500000070023F0E80256083C85EA010586EA09
:10146000010685FA47F5A3FA87F586FA47F6A5FA45
:1014700087F68EB9EED1F0BC01F0FF0102F0070251
:1014800032B110F8013B013A83EA010313B1F8D1FC
:101490000020704701387047002D06BF35460338DD
:1014A000073815F0010F07D1013015F4807F02BF16
:1014B000013015F4C03F0130F0BC0138704700BF67
:1014C00010B5431E0A44914200D110BD11F8014BE2
:1014D00003F8014FF7E7884210B501EB020307D884
:1014E000421E99420AD011F8014B02F8014FF8E769
:1014F0008342F5D98118D21AD34200D110BD13F816
:10150000014D01F8014DF7E738B50546002945D0F2
:1015100051F8043C0C1F002BB8BFE41800F0D2F8BF
:101520001F4A1368104633B9636014602846BDE84B
:10153000384000F0C8B8A3420CD921686218934221
:1015400004BF1A685B68636004BF521822600460BD
:10155000ECE713465A680AB1A242FAD9196858183A
:10156000A0420BD120680144581882421960DDD195
:10157000106852685A6001441960D7E702D90C23F9
:101580002B60D3E7206821188A4204BF1168526893
:10159000626004BF091821605C60C7E738BD00BF06
:1015A0001401002070B5CD1C25F0030508350C2D65
:1015B00038BF0C25002D064601DBA94203D90C23B8
:1015C0003360002070BD00F07DF8214A1468214688
:1015D00091B9204C23681BB9304600F063F82060B5
:1015E0002946304600F05EF8431C24D10C233360BA
:1015F000304600F068F8E4E70B685B1B18D40B2B4F
:101600000FD90B60CD50CC18304600F05CF804F1D7
:101610000B00231D20F00700C31AD3D05A42E2501A
:10162000D0E78C424B6816BF636013600C46EBE753
:101630000C464968CCE7C41C24F00304A04205D042
:10164000211A304600F02EF80130CFD02560DBE7BC
:101650001401002018010020F8B5074614460E4674
:1016600021B91146BDE8F840FFF79CBF22B9FFF74A
:101670004BFF25462846F8BD00F026F8A0420FD2C1
:1016800021463846FFF78EFF05460028F2D0314646
:101690002246FFF715FF31463846FFF735FFE9E7E9
:1016A0003546E7E738B5064C002305460846236073
:1016B000FEF7B8FE431C02D1236803B12B6038BD8E
:1016C0001C0100207047704751F8043C181F002B84
:1016D000BCBF0B58C0187047537461636B206672AF
:1016E000616D653A0A000000205230203D2020251F
:1016F0003038580A00000000205231203D202025BB
:101700003038580A00000000205232203D202025A9
:101710003038580A00000000205233203D20202598
:101720003038580A0000000020523132203D202578
:101730003038580A00000000204C52203D2020255F
:101740003038580A00000000205043203D2020255A
:101750003038580A0000000020505352203D202508
:101760003038580A000000004653522F4641523A82
:101770000A0000002043465352203D2020253038E7
:10178000580A00002048465352203D20202530387A
:10179000580A00002044465352203D20202530386E
:1017A000580A00002041465352203D202025303861
:1017B000580A0000204D4D464152203D202530382A
:1017C000580A00002042464152203D202025303852
:1017D000580A00004D6973630A000000204C522F24
:1017E0004558435F52455455524E3D202530385898
:1017F0000A0000005B486172644661756C745D0AA2
:10180000000000005B4275734661756C745D0A00F0
:101810005B55736167654661756C745D0A00000015
:101820000000000000000000010203040607080990
:101830003A303230303030303430383030463200A8
:101840000000000000000000000000000000000098
:10185000000000000000000000000000003A3130ED
:101860003430303030303030303030313230433559
:1018700034323030303843423432303030384346FE
:10188000343230303038353200003A313034303193
:101890003030303431343330303038343534333024
:1018A0003030383844343330303038303030303005
:1018B000303030414300003A313034303230303053
:1018C0003030303030303030303030303030303018
:1018D00030303030303030304435343330303038E0
:1018E000373000003A31303430333030304439341E
:1018F00033303030383030303030303030444434B1
:1019000033303030383231344430303038424500B2
:10191000003A3130343034303030463134333030C6
:10192000303846313433303030384631343330306B
:1019300030384631343330303038383000003A31C6
:101940003034303530303046313433303030384652
:10195000313433303030384631343330303038463B
:1019600031343330303038373000003A31303430B1
:10197000363030304631343330303038463134331D
:10198000303030384631343330303038463134330B
:1019900030303038363000003A3130343037303083
:1019A00030463134333030303846313433303030F3
:1019B00038463134333030303846313433303030DB
:1019C00038353000003A313034303830303046313C
:1019D00034333030303846313433303030384631BB
:1019E00034333030303830303030303030303743CE
:1019F00000003A313034303930303030303030302F
:101A000030303030303030303030303030303030D6
:101A10003030304631343330303038453400003ADD
:101A2000313034304130303046313433303030387A
:101A3000463134333030303846313433303030385A
:101A40004631343330303038323000003A313034BF
:101A50003042303030463134333030303846313433
:101A6000333030303846313433303030384631342A
:101A70003330303038313000003A31303430433098
:101A80003030463134333030303846313433303012
:101A900030384631343330303038413134433030EF
:101AA0003038343700003A3130343044303030464A
:101AB00031343330303038463134333030303846DA
:101AC0003134333030303830303030303030303204
:101AD0004300003A31303430453030304631343311
:101AE00030303038463134333030303846313433AA
:101AF000303030383030303030303030314300002A
:101B00003A313034304630303030303030303030B0
:101B100030303030303030303030303030303030C5
:101B2000304631343330303038383400003A3130D8
:101B30003431303030303030303030303030463189
:101B40003433303030384631343330303038463149
:101B5000343330303038464200003A31303431319D
:101B60003030303030303030303030303030303075
:101B70003030303030303030303030303030303065
:101B8000303030394600003A313034313230303084
:101B900046313433303030384631343330303038F9
:101BA00046313433303030384631343330303038E9
:101BB000394600003A313034313330303046313438
:101BC000333030303830303030303030303030300A
:101BD000303030303030303030303030303433002E
:101BE000003A313034313430303030303030303011
:101BF00030303030303030303030303030303030E5
:101C000030304631343330303038333300003A31FD
:101C1000303431353030304631343330303038467E
:101C20003134333030303846313433303030384668
:101C300031343330303038364600003A31303431C8
:101C4000363030304631343330303038463134334A
:101C5000303030383030303030303030303030307C
:101C600030303030443700003A31303431373030A2
:101C70003030303030303030303030303030303064
:101C80003030303030303030303030303030303054
:101C900030334600003A3130343138303030303073
:101CA000303030303030463134333030303830300E
:101CB000303030303030303030303030303046330B
:101CC00000003A313034313930303046313433303D
:101CD00030303830304235383342303030463042A0
:101CE0004146393338344233393441353200003AD1
:101CF00031303431413030303133363033393441A2
:101D0000313336303339343930304530323134368E
:101D10003338344239393432374600003A313034BE
:101D2000314230303030424432304136383442363D
:101D30003830314631304330343838363839383439
:101D40003246344439363400003A3130343143308D
:101D50003030313136383139363030343333303455
:101D600033324638453732453442314136383331E3
:101D70003442334100003A3130343144303030396C
:101D800041343230304430464545373243344231B5
:101D9000413638324634423941343246394431339F
:101DA0003500003A3130343145303030323734424A
:101DB00032453441313336303245344131333630B7
:101DC0003245344230354530303032303039000021
:101DD0003A313034314630303031303630303433CF
:101DE0003239333432464144383042343632423468
:101DF000413933343230344432303100003A3130FA
:101E0000343230303030313934363531463830388C
:101E10003242354236384634453732343442314224
:101E2000363831334239373700003A3130343231C5
:101E3000303030323334423142363830334231463A
:101E40004545373030463038364639363934363005
:101E5000314138344400003A31303432323030309D
:101E60003030463032324639323134433232344205
:101E700045343141413431303030323541433432F0
:101E8000453400003A31303432333030303134446C
:101E900043323034433230344245343141413431BD
:101EA0003030303235414334323133444330330003
:101EB000003A31303432343030303030393930312A
:101EC0003938303046303745464430353436314382
:101ED00034433143344245343141423900003A31D0
:101EE00030343235303030413431303030324330BC
:101EF0004544433238343630304630453246383146
:101F000034344235334638423200003A31303432CC
:101F1000363030303235333039383437303133358C
:101F20004532453731333442353346383235333034
:101F300039383437334500003A31303432373030B5
:101F40003030313335453345373031334331323436
:101F500042353346383234333039383437453845F2
:101F600037353700003A3130343238303030424182
:101F700042414445434130303030303032303734E4
:101F8000303030303230463434333030303831460F
:101F900000003A313034323930303030433434306C
:101FA00030303837383536333431323332353437F0
:101FB0003639383738303030303230383600003A41
:101FC00031303432413030303138303130303230ED
:101FD00030433434303030383143343430303038BA
:101FE0003143343430303038414400003A313034F9
:101FF0003242303030314334343030303831433491
:102000003430303038314334343030303831433488
:102010003430303038354500003A313034324330D6
:102020003030314334343030303830384235464641
:1020300046373635464630304245464545373145C8
:102040004630424500003A3130343244303030308E
:1020500034304630434246454646333038383045C2
:1020600046463330393830373134363431344145EF
:102070003900003A31303432453030303130343785
:1020800032444539463034313832423030343436D7
:102090003838343631323442354536424330000028
:1020A0003A313034324630303039463642394436AF
:1020B000413142364231334630303230463033449B
:1020C000303045344244423641413200003A3130EA
:1020D0003433303030303030324230434442304498
:1020E0003438303046304237463843444638303052
:1020F000383033423436453100003A3130343331F0
:10210000303030333234363239343632303436309F
:102110003046303042463930304245464545373406
:10212000424636373800003A3130343332303030BE
:102130004142363130304630374646393030323819
:102140004543443030333442344646303030343204
:10215000363600003A313034333330303044413693
:1021600032303242304244453846303831303045E2
:10217000443030453035343537303030384639002A
:10218000003A313034333430303030304245464517
:102190004537314546303034304630434246454677
:1021A00046333038383045464633393200003A310C
:1021B00030343335303030303938303731343632EE
:1021C0003434413130343732444539463034313893
:1021D00032423030343436393500003A313034331D
:1021E000363030303838343630383442354536427F
:1021F000394636423944364130373438303046304B
:1022000038344638393700003A31303433373030DB
:102210003043444638303038303342343633323449
:10222000363239343632303436303046304438463F
:1022300038364100003A31303433383030303030C5
:1022400042454645453730304544303045303634D8
:102250003537303030383145463030343046443907
:1022600000003A3130343339303030304342464563
:1022700046463330383830454646333039383037C3
:102280003134363133344131303437313200003A71
:1022900031303433413030303244453946303431D6
:1022A00038324230303434363838343630383442CC
:1022B0003545364239463642353600003A313034FB
:1022C000334230303039443641303734383030469C
:1022D0003036304638434446383030383033423474
:1022E0003633323436323100003A31303433433011
:1022F0003030323934363230343630304630423491
:102300004638303042454645453730304544303018
:102310004530304300003A313034334430303037C8
:10232000303537303030383030424546454537302B
:1023300030424546454537303042454645453732BF
:102340003500003A313034334530303037303437AF
:102350003030303045333432303030383539343342
:102360003030303841313433303030383539000096
:102370003A303434334630303030304245464545CB
:1023800037323600000000000000000000000000AE
:10239000000000000000000000000000003A3130A2
:1023A00034334634303043344637303030383030D0
:1023B00030303030323037383030303032304334F3
:1023C000463730303038374200003A31303434301C
:1023D00034303030303030303031303030303030F8
:1023E00030313037383030303032303143303130C6
:1023F000303230423300003A303834343134303007
:1024000030303030303031303030303030303130CA
:102410003830000000000000000000000000000054
:10242000000000003A313034343230303046454517
:102430003730303030303842353033343630433452
:102440004131323638354142313042344137310042
:10245000003A313034343330303031303638303384
:102460003333323346303033303330333434303931
:1024700034413933343230364438363800003A315A
:10248000303434343030303036344131333630301B
:1024900038424430353441303634393131363045C4
:1024A00046453730304630304600003A313034341B
:1024B00035303030374646433043323330333630B0
:1024C000344646304646333046334537374330305E
:1024D00030303230364200003A3130343436303029
:1024E00030303046433030323031433031303032AA
:1024F000303031323330333630303134423042369E
:1025000030423500003A31303434373030303730F3
:10251000343730304246303430303030323030466C
:10252000423430304235383342303034414234382E
:1025300000003A31303434383030303533463830BA
:102540003432423031393338303231303634383049
:102550003046303933464330303238383800003A6C
:102560003130343439303030303344443031343623
:1025700030333438303046303337463830334230F9
:102580003544463830344542393400003A3130342D
:1025900034413030303034423037303437383430F2
:1025A00030303032303244453946303433383542B9
:1025B0003030343436333500003A31303434423040
:1025C000303030463436343335363042423130459F
:1025D00034363145453030343235323834363231A4
:1025E0003436303200003A31303434433030304108
:1025F0004242453034343633383436303542304256
:10260000444538463038333134463930313142432D
:102610003500003A313034344430303030344141C8
:102620003141343430324638313031433031333354
:102630004142343246364433303441413132000075
:102640003A31303434453030303133343430303254
:10265000323033463831303243344646303034300D
:10266000384539343634303436314300003A31306D
:1026700034344630303034393436414242453830D3
:1026800034363736314230303245453344303335D5
:10269000343631303245443300003A31303435304D
:1026A00030303032384246313032353030323345D6
:1026B000384537303842354646463743444646303B
:1026C000384244353900003A313034353130303019
:1026D0003038423530304630393746383032344180
:1026E000303234423941363030384244303042465C
:1026F000343800003A313034353230303030303414
:102700003030303038303045443030453030384269
:102710003530304630414246383038424436310058
:10272000003A313034353330303046384235303489
:102730003436304434363137343631453436323736
:1027400034384646463739434646373000003A313A
:102750003034353430303032313638323634384631
:1027600046463739384646363136383235343846BB
:1027700046463739344646323800003A313034352F
:1027800035303030413136383234343846464637C9
:102790003930464645313638323334384646463786
:1027A00038434646324300003A3130343536303013
:1027B0003032313639323234384646463738384688
:1027C0004636313639323134384646463738344663
:1027D00046324500003A31303435373030304131FF
:1027E0003639323034384646463738304646453139
:1027F0003639314634384646463737434646333213
:1028000000003A31303435383030303145343846D4
:1028100046463737394646323934363144343846FD
:102820004646373735464631443443423000003A55
:102830003130343539303030453136413144343837
:1028400046464637373046463231364231433438D1
:102850004646463736434646423500003A31303424
:1028600035413030304531364231423438464646C3
:1028700037363846463135463038303046304144B8
:102880003131354634383700003A31303435423052
:1028900030303030344630434431313734384646B6
:1028A000463735464646303639393136343846466D
:1028B0004637323900003A31303435433030303524
:1028C0004246464638424433393436313534384648
:1028D0004646373536464645464537333134363633
:1028E0003800003A31303435443030303133343808
:1028F0004646463735314646454445373338353602
:1029000030303038343835363030303832410000ED
:102910003A31303435453030303538353630303076
:102920003836383536303030383738353630303064
:10293000383838353630303038393300003A3130B5
:10294000343546303030393835363030303841382B
:10295000353630303038423835363030303843381C
:10296000353630303038383300003A313034363094
:102970003030304434353630303038303045443003
:1029800030453045343536303030384634353630E1
:10299000303038313700003A313034363130303071
:1029A00030343537303030383334353730303038F4
:1029B00033433537303030383134353730303038D4
:1029C000393600003A313034363230303032343536
:1029D000373030303838333639314138383841348F
:1029E00032303144303030323037303437303500E7
:1029F000003A3130343633303030303236383033DC
:102A0000334130313241303344383032333338336C
:102A100036313031323037303437444300003A31C8
:102A20003034363430303030303230373034373084
:102A3000433442314136383432463030313032312D
:102A400041363030303231454100003A3130343691
:102A5000353030303939363031413638323246301F
:102A6000383437323232463438303332314136300E
:102A700030373441343400003A3130343636303077
:102A800030354136303141363832324634383032E2
:102A900032314136304439363030343442344646AF
:102AA00030313500003A3130343637303030303064
:102AB00036323941363037303437303042463030B4
:102AC00033383032343031303330303032343841D2
:102AD00000003A3130343638303030303045443010
:102AE0003045303232344239423638303346303075
:102AF0004330333034324231344430443800003AC9
:102B0000313034363930303030383242313644307A
:102B1000314242313146344231463441314136301E
:102B20003032453031443442394500003A31303496
:102B30003641303030314434413141363031413426
:102B400042394236384333463330333133314234FD
:102B50004144313543363300003A31303436423067
:102B60003030313834413133363843423430313308
:102B700036303730343731363442313834413141F0
:102B80003630414200003A3130343643303030463E
:102B900030453731333442354136383542363830B6
:102BA00033463033463033313246343830304636AF
:102BB0003600003A3130343644303030313344302E
:102BC0003133344142324642463346323044344255
:102BD00035423638433346333838313339430000D1
:102BE0003A31303436453030303033464230324678
:102BF0003330413441353236384332463330313464
:102C0000323031333235323030344300003A3130F3
:102C1000343646303030423346424632463330371F
:102C20003441313336304434453730373441423221
:102C3000464246334632433500003A31303437306D
:102C4000303030303334423542363843334633380F
:102C500038313330334642303246334541453730E0
:102C6000304246433400003A31303437313030306E
:102C7000303033383032343030433030303032302E
:102C80003030323446343030383035373030303808
:102C9000464300003A313034373230303034303748
:102CA00038374430313130423530304630383546AF
:102CB00041303032313038343630304630433000F5
:102CC000003A3130343733303030323946413043D6
:102CD00032313033323030304630323546413030A8
:102CE00032343130453030313232433000003A3105
:102CF00030343734303030323134363030323030B6
:102D00003046303943463830313232323134363061
:102D100030323030304630433400003A31303437CE
:102D2000353030303044463930303232323134365A
:102D30003130343630304630443046383031333438
:102D400045344232463100003A3130343736303083
:102D5000303032324345434439303232323035320A
:102D60003130303230303046303839463830323217
:102D700032353700003A3130343737303030303781
:102D800032313030323030304630383446383035F9
:102D900032323131343630303230303046304637EE
:102DA00000003A313034373830303042354639302F
:102DB00035323230373231303032303030463042D6
:102DC0003046393030463036364641323300003AEC
:102DD00031303437393030303030463032304638A8
:102DE000313042443030303030384235303234388F
:102DF0003030463033434638313900003A313034D0
:102E0000374130303046454537303042463930352D
:102E1000373030303831304235303434363031327A
:102E20003230323231323100003A313034374230D0
:102E3000303030303230303046303139463932304F
:102E40003436303046303538464131304244313006
:102E50004235394400003A31303437433030303075
:102E60003434363030323230323231313034363040
:102E700030463030454639323034363030463042D4
:102E80003700003A31303437443030303444464132
:102E900031304244303842353030323230313231E4
:102EA0003130343630304630303446393831000035
:102EB0003A313034374530303030313230303046CE
:102EC00030384246413031323231313436303032AE
:102ED000303030463046434638423500003A3130D3
:102EE0003437463030303446463441303730303075
:102EF0004630383246413131323046464637453029
:102F0000464639363230334500003A3130343830B5
:102F1000303030303046303743464133413230462E
:102F200046463744414646303532304646463743BA
:102F3000434646333300003A313034383130303094
:102F400032393230464646374434464630384244B9
:102F500033384235303534363241323046464637E2
:102F6000343900003A31303438323030304345465D
:102F700046303032304646463743304646303032AF
:102F800030464646374244464630303230463400BA
:102F9000003A3130343833303030464646374241DB
:102FA0004646374632304646463742374646324234
:102FB00032304646463742464646374600003A31AA
:102FC0003034383430303030303230464646374294
:102FD0003146463030323046464637414546463027
:102FE00030323046464637433900003A31303438C3
:102FF0003530303041424646394632304646463713
:1030000041384646324332304646463742304646DD
:1030100030303234334400003A31303438363030D6
:10302000303041453033354638313430303030304F
:1030300041464646373945464631354638313430C3
:1030400030354600003A313034383730303046467B
:1030500046373941464630313334413442324234C6
:103060004635413034464631443333384244434494
:1030700000003A3130343838303030303532383280
:10308000444438444645383030463030333041319E
:103090003131383146323631353438363700003A3E
:1030A00031303438393030303033363834393030EC
:1030B00038413430314134333032363037303437C0
:1030C0003132343830333638354600003A31303416
:1030D0003841303030343930303841343031413497
:1030E00033303236303730343731303438303336AD
:1030F0003834393030373300003A313034384230E8
:10310000303038413430314134333032363037307A
:10311000343730443438303336383439303038414D
:103120003430453500003A313034384330303031B6
:10313000413433303236303730343730423438303F
:103140003336383439303038413430314134333427
:103150003400003A31303438443030303032363098
:10316000373034373038343830333638343930301B
:10317000384134303141343330323630333200006C
:103180003A313034384530303037303437303042EF
:103190004630303030303234303030303430323409
:1031A000303030303830323430383000003A31305E
:1031B00034384630303030303043303234303030D4
:1031C00031303032343030303143303234303035D9
:1031D000323832374438384500003A3130343930EB
:1031E0003030304446453830304630303330393076
:1031F0004631353142323131323438343336383871
:10320000413430423500003A3130343931303030D9
:10321000314134333432363037303437313034386A
:103220003433363838413430314134333432363047
:10323000313500003A3130343932303030373034C3
:10324000373045343834333638384134303141340E
:103250003334323630373034373043343846420036
:10326000003A313034393330303034333638384145
:103270003430314134333432363037303437304102
:1032800034383433363838413430383500003A3148
:1032900030343934303030314134333432363037F1
:1032A00030343730383438343336383841343031CC
:1032B00041343334323630454400003A3130343909
:1032C00035303030373034373030424630303030BF
:1032D00030323430303030343032343030303038D6
:1032E00030323430304600003A3130343936303004
:1032F00030303030433032343030303130303234AE
:10330000303030314330323430303532383244446A
:1033100038313700003A31303439373030304446B4
:103320004538303046303033304131313138314634
:103330003236313534383833363834393030373442
:1033400000003A313034393830303038413430319F
:10335000413433383236303730343731323438381C
:103360003336383439303038413430304600003A62
:10337000313034393930303031413433383236300D
:1033800037303437313034383833363834393030F8
:103390003841343031413433364500003A3130342D
:1033A00039413030303832363037303437304434C9
:1033B00038383336383439303038413430314134AC
:1033C0003338323630444300003A313034394230F9
:1033D0003030373034373042343838333638343997
:1033E0003030384134303141343338323630373090
:1033F0003437463900003A313034394330303030D8
:103400003834383833363834393030384134303164
:103410004134333832363037303437303042464535
:103420003400003A313034394430303030303030CC
:103430003032343030303034303234303030303874
:1034400030323430303030433032343042370000A4
:103450003A31303439453030303030313030323438
:103460003030303143303234303031324130364414
:10347000303035323837304438413100003A31305D
:1034800034394630303044464538303046303341A8
:1034900034333443353535453637303532383639BF
:1034A000443844464538453800003A3130344130DC
:1034B00030303030304630303330423133314232C8
:1034C00033324233323438343336393031323230B9
:1034D000324641453700003A3130344131303030E6
:1034E0003031463131393433343136313730343795
:1034F0003246343834333639303132323032464164
:10350000414400003A3130344132303030303146BD
:103510003131393433343136313730343732433462
:10352000383433363930313232303246414130006E
:10353000003A313034413330303030314631313976
:103540003433343136313730343732393438343338
:1035500036393031323230324641393300003A3177
:103560003034413430303030314631313934333415
:103570003136313730343732363438343336393007
:1035800031323230324641383600003A313034413F
:1035900035303030303146313139343334313631F1
:1035A00037303437323334383433363930313232DD
:1035B00030324641373900003A313034413630300C
:1035C00030303146313139343334313631373034BB
:1035D0003731413438343336393031323230324693
:1035E00041373200003A31303441373030303031F9
:1035F0004631323345413031303134313631373074
:10360000343731373438343336393031323241455A
:1036100000003A31303441383030303032464130B9
:103620003146313233454130313031343136313742
:103630003034373133343834333639433900003A93
:10364000313034413930303030313232303246412D
:103650003031463132334541303130313431363119
:103660003730343731303438343500003A31303483
:1036700041413030303433363930313232303246F5
:1036800041303146313233454130313031343136D9
:103690003137303437453100003A3130344142302F
:1036A00030303043343834333639303132323032DE
:1036B0004641303146313233454130313031343199
:1036C0003631333400003A31303441433030303712
:1036D00030343730393438343336393031323230AF
:1036E000324641303146313233454130313031316B
:1036F0003200003A313034414430303034313631E8
:10370000373034373030303030323430303030349D
:1037100030323430303030383032343041420000D2
:103720003A3130344145303030303030433032344B
:103730003030303130303234303030314330323468
:10374000303037323931444438413300003A313077
:10375000344146303030303132383042443031300C
:1037600042313032323831304430373034373145FD
:10377000343830333641354400003A313034423049
:1037800030303038393030303246413031463131E6
:1037900039343330313632373034373142343830DF
:1037A000333641453800003A313034423130303020
:1037B00038393030303246413031463131393433A6
:1037C00030313632373034373138343830333641AF
:1037D000444200003A3130344232303030383930EF
:1037E0003030324641303146313139343330313680
:1037F00032373034373130423430313238414200A0
:10380000003A313034423330303030454430313892
:103810004231303232383135443031304243373042
:1038200034373045344336303641313800003A3190
:103830003034423430303030314630303730333944
:103840004230303032464130334631303134333615
:1038500031363246334537464500003A313034423E
:1038600035303030304134433630364130314630F7
:1038700030373033394230303032464130334631E0
:1038800030313433364200003A3130344236303051
:1038900030363136324539453730363438343336C0
:1038A00041303146303037303138393030303246BF
:1038B00041333900003A3130344237303030303122
:1038C000463131393433343136324446453730307D
:1038D00030303032343030303034303234304636BC
:1038E00000003A3130344238303030303030383007
:1038F0003234303037323834344438444645383046
:103900003046303034304331343143393900003AB5
:10391000313034423930303032343243333433434F
:103920003146343830333638303132323032464135
:103930003031463131393433313600003A313034A8
:103940004241303030303136303730343731433423
:103950003830333638303132323032464130314609
:103960003131393433423100003A3130344242305F
:103970003030303136303730343731393438303315
:1039800036383031323230324641303146313139D9
:103990003433413400003A31303442433030303037
:1039A00031363037303437313634383033363830DA
:1039B00031323230324641303146313139343339A7
:1039C0003700003A31303442443030303031363014
:1039D00037303437313334383033363830313232AF
:1039E00030324641303146313139343338410000CC
:1039F0003A3130344245303030303136303730347F
:103A00003731303438303336383031323230324674
:103A1000413031463131393433374400003A3130A6
:103A2000344246303030303136303730343730443D
:103A3000343830333638303132323032464130313A
:103A4000463131393433373000003A313034433085
:103A50003030303031363037303437304134383030
:103A600033363830313232303246413031463131FE
:103A7000393433363200003A31303443313030306B
:103A80003031363037303437333033383032343009
:103A900033343338303234303430333830323430F9
:103AA000364100003A313034433230303034343330
:103AB00038303234303530333830323430353433D6
:103AC00038303234303630333830323430353400F8
:103AD000003A3130344333303030363433383032DA
:103AE0003430303734413133363834334630303186
:103AF00030333133363030363442434600003A31C9
:103B00003034433430303031413638323246303060
:103B10003130323141363031413638323246303050
:103B200032303231413630343100003A31303443B2
:103B3000353030303730343730304246303033383B
:103B4000303234303038333830323430303234423E
:103B500034304632363300003A3130344336303078
:103B60003034373332314136303730343730304209
:103B70004630303330303134303130423530343407
:103B800036354200003A313034433730303030304F
:103B900032323131343631303436464646374237A8
:103BA0004645303834424443363030373442443965
:103BB00000003A3130344338303030394236383111
:103BC000334630383030464641443130313232307D
:103BD0003032313038343646464637334300003AC7
:103BE000313034433930303041424645303234424E
:103BF0004438363843304232313042443030424625
:103C00003030333030313430364600003A313034E1
:103C10004341303030303842353032344231423630
:103C20003839383437303842443030424630343016
:103C30003130303230454600003A31303443423082
:103C4000303030313442303032323141363037303A
:103C50003437313045303030453030343442353807
:103C60003630374500003A3130344343303030305D
:103C700030323239413630314136383432463030E4
:103C800031303231413630373034373030424632DD
:103C90003100003A31303443443030303130453037
:103CA00030304530303234423138363843304633A4
:103CB00030303430373034373030424643450000FE
:103CC0003A31303443453030303130453030304592
:103CD000303034344231413638323246303032308E
:103CE000323141363031413638313100003A3130ED
:103CF000344346303030343245413430303031385E
:103D0000363037303437313045303030453031306F
:103D1000423530343436334100003A3130344430A7
:103D200030303046464637443646463030323046EC
:103D3000464637454446463446463446413630309A
:103D4000304642334500003A31303444313030306F
:103D50003034463046464637443346464646463774
:103D60004444464630303238464244303130424492
:103D7000343500003A313034443230303030304263
:103D800035383342303030323338444638303733C8
:103D900030303534423142363839383437304100EA
:103DA000003A3130344433303030464646374430C0
:103DB0004646384446383037303030334230354468
:103DC00046383034464230304246354300003A31BE
:103DD00030344434303030303830313030323030BC
:103DE00038423546464637454446434646463732CE
:103DF00035464430384244433100003A313034448F
:103E0000353030303031344231383638373034376D
:103E1000303042463130303030303230333042355D
:103E200031343145434100003A313034443630308A
:103E3000303035343639424230313834363035441A
:103E400041384232333242363034464630464633C9
:103E500030433900003A3130344437303030314269
:103E600042303330424434464634303237334144B2
:103E700046383043333031344246303446313141B4
:103E800000003A3130344438303030464633333233
:103E900033343630323933303539333446463646AA
:103EA0004637333030393130343931374500003A14
:103EB0003130344439303030414446383045333085
:103EC0003032343631453942363934363238343688
:103ED0003030463037324638423800003A313034DC
:103EE0004441303030343331434243424638423229
:103EF000333242363030303243453144303030395D
:103F00004230303232353600003A313034444230BB
:103F10003030314137304444453730374235303026
:103F2000393331333436304134363031343630334E
:103F30003438314200003A3130344443303030308C
:103F400030363846464637434246463033423035AF
:103F500044463830344642313030303030323038F8
:103F60003400003A31303444443030303244453942
:103F700046303437384536383945343238323436BD
:103F8000304334363930343639393436453100002F
:103F90003A313034444530303033374438384138A2
:103FA00039313246343930364633314430323536A1
:103FB000383039363936463141313300003A313004
:103FC000344446303030363536393032323330359D
:103FD0004542343530353935464246334635303939
:103FE000463130313033313000003A3130344530F1
:103FF000303030334234343944343233384246314D
:104000004434363533303533304435323934363054
:10401000304630324500003A3130344531303030AE
:104020003739464230363436353042393043323310
:1040300043414638303033304133383934334630F9
:10404000343900003A313034453230303034303099
:1040500033413338313446463046463330424445A6
:104060003846303837334134363231363938370014
:10407000003A313034453330303030304630463617
:1040800046414133383932334634393036333433AC
:1040900046303830303341333831383200003A312D
:1040A00030344534303030323636313635363133CF
:1040B0004534344544314232363630413536303479
:1040C00045343634453435443900003A31303445CE
:1040D000353030303030443934453436333234368C
:1040E000343134363230363830304630454346414C
:1040F00041333638374400003A31303445363030B9
:10410000303942314241333630323336383145343A
:104110003432363630303032304443453732413431
:1041200036433300003A31303445373030303030A8
:1041300046304132464230363436303032384532FD
:104140004431323136393530343630304630364508
:1041500000003A3130344538303030463346414340
:104160003845373244453946303446394442303890
:104170003034363033393338423839373400003A46
:1041800031303445393030303144303630433436D4
:10419000313634363046443530423639364242398B
:1041A0003430323130304630373400003A31303438
:1041B000454130303033314642323036303230369D
:1041C0003132384239304332334338463830303375
:1041D0003034464630393600003A313034454230CA
:1041E000303046463330433745303430323336335F
:1041F000363130303233303939333230323338447B
:104200004638364500003A3130344543303030329C
:104210003933303330323338444638324133303436
:10422000464630303130423337343633443436301A
:104230004300003A3130344544303030313546386F
:1042400030313342304242313235324233454431EB
:10425000423745423036304130424430453100002B
:104260003A313034454530303035333436333234FA
:1042700036323134363430343646464637373246B5
:10428000463031333030304630334300003A31303D
:1042900034454630303041343830303939423533A6
:1042A00034343039393333423738303032423030B9
:1042B000463039443830434300003A3130344630D8
:1042C0003030303030323334464630464633324375
:1042D0004445393035323330343933303739333877
:1042E000444638374100003A3130344631303030BE
:1042F000353333303141393332463436303532326A
:104300003137463830313142344634383030463037
:10431000313300003A3130344632303030324646A4
:1043200041303439424430423944393036343442F1
:104330004632303232384446383533323031340048
:10434000003A313034463330303031413037343454
:1043500042463242323238444638353332303241C6
:1043600037383241324131354430324400003A313D
:1043700030344634303030303739413246343630DC
:1043800030323030413235333934363131463830DD
:1043900031334233303342434400003A3130344603
:1043A0003530303030393242344444394238423189
:1043B000304645303246343642384537334634414C
:1043C00038303141363800003A31303446363030FA
:1043D0003030424641303046303138343330343971
:1043E0003033443436443345373033394131313159
:1043F00044353500003A31303446373030303132D0
:104400003638303339313030324130314442303750
:104410003932303445303532343234334630443931
:1044200000003A31303446383030303032303330BA
:10443000373932303439333342373832453242300B
:104440004344313742373832413242424200003A27
:1044500031303446393030303333443130333942FF
:1044600031413144314236383033393230303242E2
:104470004238424634464630334600003A31303402
:1044800046413030304646333330323337303539B9
:1044900033324534443339373830333232323834BA
:1044A0003630304630344600003A313034464230FF
:1044B0003030453746393338423134303233343096
:1044C0003142303346413030463030343942303377
:1044D0003433393800003A313034464330303030EC
:1044E0003133373034393333393738323734383879
:1044F000444638323831303036323237453143373E
:104500003300003A313034464430303030304630B9
:10451000443646393030323833384430323334421E
:104520003133424230333942303733334345000070
:104530003A3130344645303030323346303037301F
:10454000333038333330333933303939423442340D
:10455000343039393336444537423000003A31304F
:1045600034464630303030354642303233323031E6
:1045700032303046343641364537303032333031E0
:10458000333730353933383700003A313035303051
:1045900030303031393436304132353338343631D9
:1045A00030463830313242333033413039324130A5
:1045B000334439453700003A31303530313030300E
:1045C0003030324243384430303539314336453764
:1045D0003035464230313231303132333037343693
:1045E000463700003A3130353032303030463045D1
:1045F000373033414230303933323234363130346F
:104600004230344139343034364146463344300048
:10461000003A31303530333030303030383042309D
:1046200046314646334638313436443644314133D8
:1046300038393542303633464635453200003A3156
:104640003035303430303033364146303939383116
:104650004442304244453846303846303341423097
:1046600030393332323436343000003A313035307C
:1046700035303030303634423034413934303436ED
:104680003030463038314638454145373930463785
:1046900030303038303300003A3130353036303059
:1046A000303936463730303038394146373030309F
:1046B00038303030303030303044313444303030C5
:1046C00038454300003A31303530373030303244ED
:1046D000453946303437393134363146343638414D
:1046E0003638304236394444463832303830434325
:1046F00000003A31303530383030303933343242DE
:104700003842463133343643394638303033303925
:104710003146383433323030363436353200003AB0
:104720003130353039303030304334363132423147
:104730003031333343394638303033303233363822
:104740003939303634324246414200003A31303550
:104750003041303030443946383030333030323305
:1047600033433946383030333032353638313546D8
:104770003030363035334300003A31303530423056
:1047800030303037443130344631313930414533BF
:10479000363844394638303032303942314141427E
:1047A0003432323200003A3130353043303030323A
:1047B0003844433934463834333330323236383083
:1047C0003033333138424630313233393230363893
:1047D0004400003A313035304430303032444434D3
:1047E0003034463134333032333934363330343682
:1047F00043303437303133303230443037380000D2
:104800003A31303530453030303233363845353650
:104810003844394638303032303033463030363034
:10482000333034324230384246303500003A31308D
:104830003530463030304144314141333638323200
:1048400036393043424632354541453537353030CB
:10485000323539333432323500003A313035313087
:1048600030303043344246394231414544313834A6
:1048700046463030303039314133343444343531C8
:10488000414431344600003A313035313130303036
:1048900030303230303845303031323335323436E2
:1048A00033393436333034364330343730313330C3
:1048B000394500003A313035313230303030334410
:1048C0003134464630464633304244453846303827
:1048D000373031333543334537453131383438009B
:1048E000003A3130353133303030354131433330B7
:1048F000323038314638343330303232343439346F
:1049000046383435313038324638324300003A3197
:10491000303531343030303433313030323333436A
:104920003545373031323332323436333934363339
:1049300030343643303437413300003A313035318A
:10494000353030303031333045364430303946310F
:1049500030313039443845373030303032444539E1
:1049600046303433354300003A313035313630305B
:1049700030303146313433304330433436303937D8
:1049800045383542303645323931373436303634B1
:1049900036423000003A3130353137303030393836
:1049A0003436304339413030463042333830323299
:1049B000443836333239333644303041443831416B
:1049C00000003A3130353138303030303032393023
:1049D0003046304239383035383239303046303868
:1049E0003338303034463134323035314400003AD7
:1049F0003130353139303030383446383432313076
:104A00003332453036343239303144303639323948
:104A10004636443132303638463000003A3130358F
:104A2000314130303031333638303530363033463E
:104A3000313034303132414435314236383131361B
:104A40003030303242363200003A31303531423087
:104A500030303033444132443232354234323834EB
:104A600046383433323036463438304132323339D6
:104A70004530344200003A31303531433030303740
:104A800033323930304630394438303038443836B3
:104A90004632393230443037303239444444313888
:104AA0003700003A31303531443030303233363827
:104AB00034334630323030333233363030334530B1
:104AC00037353239313744303738323936320000F1
:104AD0003A31303531453030304434443137383272
:104AE0003338344638343533303634343835354558
:104AF000303133363831393144464300003A3130B1
:104B0000353146303030314236383131363030345C
:104B1000463134323035383446383432333030313F
:104B2000323338434530303100003A31303532309D
:104B30003030303142363831313630313046303431
:104B400030304631384246314242324346453731B1
:104B5000333638383600003A313035323130303083
:104B600032353638313831443130363032383036FB
:104B700030314435314236383032453036383036CF
:104B8000383500003A313035323230303046424428
:104B9000353142383835343438364632393134429A
:104BA00046304132323038323230303231384400DF
:104BB000003A3130353233303030383446383433DF
:104BC0003130363536384135363030303244433086
:104BD00046323935383032313638353000003A31E6
:104BE000303532343030303231463030343031329A
:104BF0003136303030324233444431303032443454
:104C000030463038453830323300003A31303532B2
:104C10003530303036353436303832413042443138
:104C2000323336384442303730384435323336390F
:104C300036323638463500003A313035323630308B
:104C400030394134324445424633303233303546D0
:104C500038303133433035463146463335414345AC
:104C600042373700003A3130353237303030303566
:104C700030333233363143444638303038303342C3
:104C800034363033414132313436333034363532D4
:104C900000003A31303532383030304646463746FB
:104CA000364645303133303444443134464630465C
:104CB0004633303035423042444538314400003AC2
:104CC000313035323930303046303833333934389A
:104CD000383446383435313031333638323136387D
:104CE0003144314431423638383800003A313035B9
:104CF0003241303030313536303041303630424458
:104D00003543413037343442463431463032303026
:104D10003132313630463200003A313035324230AD
:104D20003030314242393232363832324630323027
:104D30003032323236303130323242374537344415
:104D40003036423700003A3130353243303030347B
:104D50003842463942423245464537363534364286
:104D600033464246324631303246423131333333B4
:104D70003700003A31303532443030304333354338
:104D800030354638303133443042343630303239C1
:104D900046354431423945373133363831390000F0
:104DA0003A313035324530303032353638363136BA
:104DB000393138314431303630323830363142369C
:104DC000383031443531393630433200003A3130F1
:104DD000353246303030303245303641303646425A
:104DE000443531393830303032333233363136357C
:104DF000343642394537303100003A3130353330BE
:104E00003030303133363831393144313136303168
:104E10004436383632363830303231323834363043
:104E2000304630414400003A313035333130303093
:104E3000333746383038423134303142363036300C
:104E40003633363832333631303032333834463810
:104E5000394300003A313035333230303034333377
:104E600030413745373233363932413436333934CD
:104E70003633303436433034373031333035330025
:104E8000003A313035333330303041414430323301
:104E900036383942303731334434453036383033A0
:104EA00039423938343242384246413800003A31CA
:104EB00030353334303030313834364133453730A3
:104EC0003132333441343633393436333034364387
:104ED00030343730313330393400003A3130353303
:104EE0003530303039414430303133354533363860
:104EF0003033394139423141414234324632444300
:104F000045424537383300003A313035333630309A
:104F1000303030323530344631313930394635452C
:104F200037303032424143443130333738383446F9
:104F300038383600003A313035333730303034329B
:104F400033303034463134323035364345374131F1
:104F500046373030303842324637303030384442CD
:104F600000003A3130353338303030303146304659
:104F700046303131303241324244423130463030B5
:104F80003730463038443031304638463600003A03
:104F900031303533393030303031334230313341D4
:104FA0003842343232444430313046303037304683
:104FB0003432423346364431464100003A313035CE
:104FC0003341303030463042343431454130313273
:104FD000313431454130313431323246303037307E
:104FE0003437464630313300003A313035334230C1
:104FF0003030303030373030323346304538303270
:105000003536303833433835454130313035383630
:105010004541364100003A3130353343303030308D
:1050200031303638354641343746354133464138DC
:1050300037463538364641343746364135464141A4
:105040003600003A31303533443030303837463668
:105050003845423945454431463042433031463087
:10506000464630313032463030373032423200003E
:105070003A313035334530303033324231313046D9
:1050800038303133423031334138334541303130BB
:10509000333133423146384431354400003A3130FF
:1050A00035334630303030303230373034373031CD
:1050B0003338373034373030324430364246333587
:1050C000343630333338334500003A3130353430FC
:1050D000303030303733383135463030313046308B
:1050E000374431303133303135463438303746305B
:1050F000324246373600003A3130353431303030C4
:10510000303133303135463443303346303133304B
:10511000463042433031333837303437303042460E
:10512000433700003A31303534323030303130429C
:105130003534333145304134343931343230304410
:10514000313130424431314638303134423432002A
:10515000003A313035343330303030334638303146
:1051600034464637453738383432313042353031BD
:1051700045423032303330374438453400003A311C
:1051800030353434303030343231453939343230DE
:105190004144303131463830313442303246383093
:1051A00031344646384537433900003A31303534DA
:1051B000353030303833343246354439383131388F
:1051C000443231414433343230304431313042445E
:1051D00031334638373600003A31303534363030E6
:1051E000303031344430314638303134444637453C
:1051F000373338423530353436303032393435444F
:1052000030353300003A31303534373030303531D5
:1052100046383034334330433146303032424238FE
:1052200042464534313830304630443246383230E8
:1052300000003A3130353438303030314634413185
:105240003336383130343633334239363336303111
:105250003436303238343642444538414300003A1F
:105260003130353439303030333834303030463006
:10527000433842384133343230434439323136389E
:105280003632313839333432383200003A31303541
:105290003441303030303442463141363835423690
:1052A00038363336303034424635323138323236A1
:1052B0003030343630314500003A31303534423008
:1052C0003030454345373133343635413638304157
:1052D0004231413234324641443931393638353839
:1052E0003138394200003A313035344330303041C2
:1052F0003034323042443132303638303134343563
:105300003831383832343231393630444444314619
:105310003600003A313035344430303031303638B0
:105320003532363835413630303134343139363033
:105330004437453730324439304332333541000049
:105340003A313035344530303032423630443345EE
:1053500037323036383231313838413432303442F5
:10536000463131363835323638463400003A31303D
:1053700035344630303036323630303442463039CB
:1053800031383231363035433630433745373338AC
:10539000424430304246363700003A3130353530FD
:1053A00030303030433031303032303730423543B6
:1053B0004431433235463030333035303833353090
:1053C000433244434400003A3130353531303030D7
:1053D000333842463043323530303244303634365A
:1053E000303144424139343230334439304332333E
:1053F000313800003A3130353532303030333336E1
:105400003030303230373042443030463037444626
:10541000383231344131343638323134364538005F
:10542000003A31303535333030303931423932306D
:105430003443323336383142423933303436303007
:1054400046303633463832303630313500003A3166
:10545000303535343030303239343633303436301C
:1054600030463035454638343331433234443130B8
:1054700043323333333630314100003A3130353541
:1054800035303030333034363030463036384638C8
:10549000453445373042363835423142313844346C
:1054A00030423242414600003A31303535363030F4
:1054B000303046443930423630434435304343314E
:1054C0003833303436303046303543463830344661
:1054D00031333800003A31303535373030303042F2
:1054E000303032333144323046303037303043336D
:1054F000314144334430354134324532353037421E
:1055000000003A31303535383030304430453738A6
:10551000433432344236383136424636333630310F
:105520003336303043343645424537423400003A52
:10553000313035353930303030433436343936381F
:1055400043434537433431433234463030333034CB
:105550004130343230354430413300003A31303557
:1055600035413030303231314133303436303046ED
:1055700030324546383031333043464430323536A8
:105580003044424537314400003A313035354230FD
:1055900030303043303130303230313030313030F3
:1055A000323046384235303734363134343630458F
:1055B0003436453500003A313035354330303032FD
:1055C0003142393131343642444538463834304638
:1055D00046463739434246323242394646463741DB
:1055E0004200003A3130353544303030344246469E
:1055F000323534363238343646384244303046302C
:10560000323646384130343230464432323200008D
:105610003A31303535453030303231343633383444
:1056200036464646373845464630353436303032D1
:10563000384632443033313436413700003A313065
:1056400035354630303032323436464646373135DD
:1056500046463331343633383436464646373335AA
:10566000464645394537344100003A313035363009
:1056700030303033353436453745373338423530BE
:1056800036344330303233303534363038343632D5
:10569000333630443300003A313035363130303033
:1056A000464546373038464634333143303244314C
:1056B0003233363830334231324236303338424476
:1056C000394400003A313035363230303031343000
:1056D0003130303230373034373730343735314687
:1056E000383034334331383146303032424543006C
:1056F000003A313035363330303042434246304262
:105700003538433031383730343735333734363144
:1057100036333642323036363732304600003A3190
:10572000303536343030303631364436353341302A
:105730004130303030303032303532333032303347
:1057400044323032303235374600003A3130353667
:105750003530303033303338353830413030303018
:105760003030303032303532333132303344323011
:1057700032303235314200003A3130353636303051
:1057800030333033383538304130303030303030ED
:1057900030323035323332323033443230323032DC
:1057A00035304100003A3130353637303030333023
:1057B00033383538304130303030303030303230BE
:1057C0003532333332303344323032303235463989
:1057D00000003A31303536383030303330333835F8
:1057E0003830413030303030303030323035323394
:1057F0003133323230334432303235443900003ABA
:105800003130353639303030333033383538304157
:105810003030303030303030323034433532323066
:105820003344323032303235433000003A31303593
:105830003641303030333033383538304130303025
:10584000303030303032303530343332303344322F
:105850003032303235424200003A31303536423053
:10586000303033303338353830413030303030300C
:1058700030303230353035333532323033443230F7
:105880003235363900003A31303536433030303336
:1058900030333835383041303030303030303034DB
:1058A000363533353232463436343135323341458C
:1058B0003300003A3130353644303030304130300A
:1058C00030303030323034333436353335323230B4
:1058D00033443230323032353330333834380000EC
:1058E0003A3130353645303030353830413030306F
:1058F0003032303438343635333532323033443266
:10590000303230323533303338444200003A3130AF
:105910003536463030303538304130303030323046
:105920003434343635333532323033443230323039
:10593000323533303338434600003A313035373072
:10594000303030353830413030303032303431342E
:10595000363533353232303344323032303235330B
:10596000303338433100003A313035373130303060
:1059700035383041303030303230344434443436CD
:1059800034313532323033443230323533303338DB
:10599000384100003A313035373230303035383028
:1059A00041303030303230343234363431353232C6
:1059B00030334432303230323533303338423200D3
:1059C000003A3130353733303030353830413030CF
:1059D000303034443639373336333041303030307C
:1059E00030303230344335323246383400003A31C8
:1059F000303537343030303435353834333546355A
:105A0000323435353435353532344533443230323D
:105A100035333033383538463800003A3130353791
:105A2000353030303041303030303030354234383D
:105A3000363137323634343636313735364337340B
:105A400035443041303200003A313035373630306D
:105A50003030303030303030303542343237353716
:105A600033343636313735364337343544304130C8
:105A700030353100003A313035373730303035424B
:105A800035353733363136373635343636313735C6
:105A900036433734354430413030303030303736AB
:105AA00000003A3130353738303030303030303037
:105AB00030303030303030303030303031303230E3
:105AC0003330343036303730383039463100003AF0
:105AD0003130353739303030464646464646464600
