":020000040800F2",
":1000000000000120C5020008CB020008CF02000852",
":1000100041030008450300088D03000800000000AC",
":10002000000000000000000000000000D5030008F0",
":10003000D903000800000000DD030008250C0008BB",
":10004000F1030008F1030008F1030008F1030008C0",
":10005000F1030008F103000895080008A50800084E",
":10006000B5080008C5080008D5080008F103000815",
":10007000F1030008F1030008F1030008F103000890",
":10008000F1030008F1030008F1030008000000007C",
":10009000000000000000000000000000E50800086B",
":1000A000F1030008F1030008F1030008F103000860",
":1000B000F1030008F1030008F1030008F103000850",
":1000C000F1030008F1030008F1030008F103000840",
":1000D000F1030008F1030008F1030008000000002C",
":1000E000F5080008F1030008F10300080000000013",
":1000F000000000000000000000000000F103000804",
":1001000000000000F1030008F1030008F1030008FB",
":1001100000000000000000000000000000000000DF",
":10012000F1030008F1030008F1030008F1030008DF",
":10013000F1030008000000000000000000000000C3",
":10014000000000000000000000000000F1030008B3",
":10015000F1030008F1030008F1030008F1030008AF",
":10016000F1030008F1030008000000000000000097",
":10017000000000000000000000000000000000007F",
":1001800000000000F1030008000000000000000073",
":10019000F103000800B583B000F0BAF9384B394AD2",
":1001A0001360394A1360394900E02146384B9942BF",
":1001B0000BD20A684B6801F10C0488689842F4D9A4",
":1001C0001168196004330432F8E72E4B1A68314B7A",
":1001D0009A4200D0FEE72C4B1A682F4B9A42F9D175",
":1001E000274B2E4A13602E4A13602E4B05E0002049",
":1001F000106004329342FAD80B462B4A934204D241",
":10020000194651F8082B5B68F4E7244B1B6813B9B7",
":10021000234B1B6803B1FEE700F086F9694601A88D",
":1002200000F022F9214C224BE41AA4100025AC4224",
":1002300014DC204C204BE41AA4100025AC4213DC43",
":100240000099019800F0ECFE05461C4C1C4BE41A8A",
":10025000A410002C0EDC284600F0E2F8144B53F8F2",
":10026000253098470135E2E7134B53F8253098477E",
":100270000135E3E7013C124B53F824309847E8E797",
":10028000BABADECA0000002080000020F403000893",
":100290000C040008785634123254769884000020FA",
":1002A000480100200C0400081C0400081C0400087D",
":1002B0001C0400081C0400081C0400081C0400089E",
":1002C0001C04000808B5FFF765FF00BEFEE71EF03E",
":1002D000040F0CBFEFF30880EFF309807146414A29",
":1002E00010472DE9F04182B004468846124B5E6B00",
":1002F0009F6B9D6A1B6B13F0020F03D00E4BDB6AE2",
":10030000002B0CDB0D4800F0B7F8CDF800803B4621",
":1003100032462946204600F00BF900BEFEE74BF6B8",
":10032000AB6100F07FF90028ECD0034B4FF00042A6",
":10033000DA6202B0BDE8F08100ED00E0241C0008A4",
":1003400000BEFEE71EF0040F0CBFEFF30880EFF3D2",
":1003500009807146244A10472DE9F04182B00446D5",
":100360008846084B5E6B9F6B9D6A074800F084F8D7",
":10037000CDF800803B4632462946204600F0D8F8AA",
":1003800000BEFEE700ED00E0341C00081EF0040F84",
":100390000CBFEFF30880EFF309807146134A104752",
":1003A0002DE9F04182B004468846084B5E6B9F6B96",
":1003B0009D6A074800F060F8CDF800803B46324661",
":1003C0002946204600F0B4F800BEFEE700ED00E04C",
":1003D000401C000800BEFEE700BEFEE700BEFEE7D0",
":1003E00070470000E302000859030008A103000859",
":0403F00000BEFEE766",
":1003F400941C00080000002084000020941C0008C5",
":100404000000001000000010840000204C010020B7",
":080414000000001000000010C0",
":10042000FEE7000008B503460C4A12685AB10B4AB1",
":100430001068033323F003030344094A934206D8A8",
":10044000064A136008BD054A06491160EFE700F04F",
":10045000E7FE0C2303604FF0FF30F3E78800002035",
":1004600000FC00204C01002001230360014B0B60C5",
":10047000704700BF040000200FB400B583B004AB88",
":1004800053F8042B01938021064800F0FBFE00285E",
":1004900003DD0146034800F037F803B05DF804EBD4",
":1004A00004B07047900000202DE9F04385B0044669",
":1004B0000F4643560BB10E461EE004252846214642",
":1004C000ABBE0446384605B0BDE8F08314F9011B05",
":1004D00004AA1A4402F8101C0133AB42F6D304AA52",
":1004E0001344002203F8102C4FF00408E94640465C",
":1004F0004946ABBE8046761B002EE3D03546102E13",
":1005000028BF10250023E8E708B5FFF7CDFF08BD99",
":1005100008B500F097F8024A024B9A6008BD00BF88",
":100520000000000800ED00E008B500F0ABF808BDE1",
":10053000F8B504460D4617461E462748FFF79CFFB0",
":1005400021682648FFF798FF61682548FFF794FF68",
":10055000A1682448FFF790FFE1682348FFF78CFF6C",
":1005600021692248FFF788FF61692148FFF784FF6E",
":10057000A1692048FFF780FFE1691F48FFF77CFF72",
":100580001E48FFF779FF29461D48FFF775FF1D4CF0",
":10059000E16A1D48FFF770FF216B1C48FFF76CFFF5",
":1005A000E16B1B48FFF768FF15F0800F0AD115F4C7",
":1005B000004F0CD11748FFF75FFF06991648FFF769",
":1005C0005BFFF8BD39461548FFF756FFEFE73146A8",
":1005D0001348FFF751FFEDE7081B0008181B000840",
":1005E000281B0008381B0008481B0008581B00087F",
":1005F000681B0008781B0008881B0008981B00086F",
":10060000A41B000800ED00E0B41B0008C41B000898",
":10061000D41B0008041C00080C1C0008E41B000884",
":10062000F41B000883691A888A4201D000207047B1",
":100630000268033A012A03D802338361012070471C",
":10064000002070470C4B1A6842F001021A6000212A",
":1006500099601A6822F0847222F480321A60074A84",
":100660005A601A6822F480221A60D960044B4FF055",
":1006700000629A60704700BF0038024010300024CA",
":1006800000ED00E0224B9B6803F00C03042B14D018",
":10069000082B16D01BB11F4B1F4A1A6002E01D4BDE",
":1006A0001D4A1A601A4B9B68C3F303131B4AD15CA3",
":1006B000184A1368CB4013607047164B184A1A60EB",
":1006C000F0E7134B5A685B6803F03F0312F4800FA6",
":1006D00013D0134AB2FBF3F20D4B5B68C3F38813DC",
":1006E00003FB02F30A4A5268C2F30142013252008C",
":1006F000B3FBF2F3074A1360D4E7074AB2FBF3F205",
":10070000034B5B68C3F3881303FB02F3EAE700BF04",
":10071000003802400C0000200024F400501C0008A7",
":1007200040787D0103490B68012202FA00F003437F",
":100730000B607047003C014001290BD011B1022928",
":1007400010D070470D490B68012202FA00F01843DF",
":10075000086070470A490B68012202FA00F018434A",
":100760000860704705490A68012303FA00F0024354",
":100770000A60034B1A68104318607047083C014038",
":100780000C3C01400F2864D8DFE800F0080D131975",
":100790001F242A30363B41474D52585E2D4A13687C",
":1007A0001943116070472B4A136843EA0111116025",
":1007B0007047284A136843EA012111607047254AAF",
":1007C000136843EA013111607047234A13681943E3",
":1007D00011607047204A136843EA011111607047A5",
":1007E0001D4A136843EA0121116070471A4A1368D1",
":1007F00043EA013111607047184A136819431160C8",
":100800007047164A136843EA011111607047134A92",
":10081000136843EA012111607047104A136843EAE4",
":100820000131116070470E4A136819431160704717",
":100830000B4A136843EA011111607047084A1368B4",
":1008400043EA012111607047054A136843EA013108",
":1008500011607047083801400C38014010380140E1",
":1008600014380140014B1860704700BF1001002090",
":10087000014B1860704700BF14010020014B186045",
":10088000704700BF1C010020014B1860704700BF7B",
":100890002801002008B5024B1B68984708BD00BF1F",
":1008A0001001002008B5024B1B68984708BD00BF27",
":1008B0001401002008B5024B1B68984708BD00BF13",
":1008C0001C01002008B5024B1B68984708BD00BFFB",
":1008D0002001002008B5024B1B68984708BD00BFE7",
":1008E0002401002008B5024B1B68984708BD00BFD3",
":1008F0002801002008B5024B1B68984708BD00BFBF",
":100900001801002001280AD010B102280ED070472B",
":1009100049008A4009490B681A430A607047490038",
":100920008A4007490B681A430A60704749008A40A9",
":1009300004490B681A430A60704700BF0000024078",
":100940000004024000080240012A05D001282AD0F4",
":1009500000B3022830D0704701280BD010B1022814",
":1009600010D07047012303FA01F1184A53690B4371",
":1009700053617047012303FA01F1154A53690B4390",
":1009800053617047012303FA01F1124A53690B4383",
":1009900053617047012303FA01F10C4A536923EABA",
":1009A000010353617047012303FA01F1084A5369B7",
":1009B00023EA010353617047012303FA01F1054A59",
":1009C000536923EA01035361704700BF00000240EE",
":1009D0000004024000080240012A05D001282AD064",
":1009E00000B3022830D0704701280BD010B1022884",
":1009F00010D07047012303FA01F1184A53680B43E2",
":100A000053607047012303FA01F1154A53680B4301",
":100A100053607047012303FA01F1124A53680B43F4",
":100A200053607047012303FA01F10C4A536823EA2B",
":100A3000010353607047012303FA01F1084A536828",
":100A400023EA010353607047012303FA01F1054AC9",
":100A5000536823EA01035360704700BF000002405F",
":100A6000000402400008024001280AD010B1022808",
":100A70000ED0704749008A4009498B681A438A6042",
":100A8000704749008A4007498B681A438A6070475B",
":100A900049008A4004498B681A438A60704700BF46",
":100AA00000000240000402400008024001280AD071",
":100AB00010B102280ED0704749008A400949CB681E",
":100AC0001A43CA60704749008A400749CB681A43F5",
":100AD000CA60704749008A400449CB681A43CA601B",
":100AE000704700BF000002400004024000080240BE",
":100AF000014B1970704700BF1400024000F01F0244",
":100B0000400901239340024A42F82030704700BF59",
":100B100000E100E0044B054A1A60000240F0BF60AB",
":100B200040F40030186070470CED00E00000FA055A",
":100B30000339042907D8DFE801F006030F13170073",
":100B400043EA4202D2B21201D2B200F1604000F593",
":100B5000614080F80023704743EA8202D2B2F2E794",
":100B600043EAC202D2B2EEE71A46ECE7074A13683C",
":100B700043F001031360064B1A6822F001021A6069",
":100B80001A6822F002021A60704700BF0038024063",
":100B900008380240032822D8DFE800F0020A121ABF",
":100BA0000F480368012202FA01F1194301607047FE",
":100BB0000C480368012202FA01F1194301607047F1",
":100BC00009480368012202FA01F1194301607047E4",
":100BD00006480368012202FA01F1194301607047D7",
":100BE0003038024034380240403802404438024035",
":100BF0000B4B586000229A601A6822F002021A60B9",
":100C00001A6842F001021A60054B1B6813F4803F1A",
":100C1000FAD0034A136823F001031360704700BF42",
":100C200010E000E008B5074B1B7823B9064A1368AB",
":100C300023F001031360054B1B689847024B1B68A8",
":100C400008BD00BF2C01002010E000E030010020B2",
":100C5000064B1B782BB10023044A1370044A13700F",
":100C60007047024B01221A70704700BF40010020FC",
":100C700042010020084B1B78DBB2012B00D07047EB",
":100C8000064A13780133DBB21370052BF7D91346EC",
":100C900000221A70F3E700BF40010020420100204B",
":100CA000404B1B78DBB2012B00D070473E4B1B78CA",
":100CB000052BFAD8DFE803F00317293D4F633B4BC0",
":100CC0001A780132D2B21A70394BA3FB0213DB0837",
":100CD00003EB83035900511A11F0FF0FE5D10A3AD3",
":100CE000324B1A707047314A13780A33DBB21370F3",
":100CF0003B2BDAD92E4AA2FB0312D20802EB820266",
":100D000051005B1A294A137070472A4B1A78013236",
":100D1000D2B21A70264BA3FB0213DB0803EB83034A",
":100D20005900511A11F0FF0FBFD10A3A214B1A7026",
":100D30007047204A13780A33DBB213703B2BB4D9C7",
":100D40001B4AA2FB0312D20802EB820251005B1A7B",
":100D5000184A13707047184B1A780132D2B21A70C1",
":100D6000134BA3FB0213DB0803EB83035900511A57",
":100D700011F0FF0F99D10A3A0F4B1A7070470E4AC3",
":100D800013780A33DBB21370172B8ED9084AA2FBF3",
":100D90000312D20802EB820251005B1A064A13705A",
":100DA00083E700BF400100204201002041010020F4",
":100DB000CDCCCCCC43010020440100203B4B1B7820",
":100DC000DBB2012B00D07047394B1B78052BFAD8CA",
":100DD000DFE803F003182439455A364B1A78364BAE",
":100DE000A3FB0213DB0803EB83035900511A11F034",
":100DF000FF0F03D109322F4B1A707047013A2D4B68",
":100E00001A7070472B4B1B78092B03D83233294AB1",
":100E1000137070470A3B274A13707047274B1A78A4",
":100E2000254BA3FB0213DB0803EB83035900511A84",
":100E300011F0FF0F03D10932204B1A707047013AAD",
":100E40001E4B1A7070471D4B1B78092B03D8323389",
":100E50001A4A137070470A3B184A13707047184BB0",
":100E60001A78154BA3FB0213DB0803EB830359002D",
":100E7000511A11F0FF0F03D10932114B1A7070474C",
":100E8000013A0F4B1A7070470D4B1B78092B09D88C",
":100E9000032B03D90A330A4A137070471433084AE4",
":100EA000137070470A3B064A13708CE7400100201C",
":100EB0004201002041010020CDCCCCCC43010020D8",
":100EC0004401002008B5034B195C0020FFF710FE19",
":100ED00008BD00BF100000202DE9F0474C4B93F8EF",
":100EE00000A04C4DA5FB0A37FF0807EB8702530013",
":100EF000AAEB030A5FFA8AFAFFB2474B93F8009015",
":100F0000A5FB0936F60806EB86025300A9EB030998",
":100F10005FFA89F9F6B2414B93F80080A5FB0835DA",
":100F2000ED0805EB85025300A8EB03085FFA88F88B",
":100F3000EDB2002467E0002209210120FFF704FD43",
":100F40005046FFF7BFFF41F60B20FFF751FE01228D",
":100F500009211046FFF7F8FC00220A210120FFF7C3",
":100F6000F3FC3846FFF7AEFF41F60B20FFF740FEDB",
":100F700001220A211046FFF7E7FC00220C21012084",
":100F8000FFF7E2FC4846FFF79DFF41F60B20FFF715",
":100F90002FFE01220C211046FFF7D6FC00220D2166",
":100FA0000120FFF7D1FC3046FFF78CFF41F60B2004",
":100FB000FFF71EFE01220D211046FFF7C5FC00229F",
":100FC0000E210120FFF7C0FC4046FFF77BFF41F6F2",
":100FD0000B20FFF70DFE01220E211046FFF7B4FC97",
":100FE00000220F210120FFF7AFFC2846FFF76AFF20",
":100FF00041F60B20FFF7FCFD01220F211046FFF701",
":10100000A3FC0134E4B2312C95D9BDE8F08700BFD0",
":1010100041010020CDCCCCCC430100204401002074",
":1010200010B5FFF7A3FD00210846FFF7B3FD01212E",
":101030000020FFF7AFFD0E210320FFF7ABFD0520D9",
":10104000FFF768FD0023032205210620FFF770FD4E",
":101050000023022205210720FFF76AFD0023012259",
":1010600005210820FFF764FD00231A4605211720FB",
":10107000FFF75EFD002205210120FFF743FC01225E",
":1010800005211046FFF712FD002211460120FFF74F",
":1010900039FC012200211046FFF708FD0022012142",
":1010A0000846FFF72FFC012211461046FFF7FEFC11",
":1010B000002202210120FFF725FC01220221104617",
":1010C000FFF7F4FC01210020FFF736FB0121084661",
":1010D000FFF732FB01210220FFF72EFB0121052043",
":1010E000FFF72AFB01210020FFF74CFB01210846F6",
":1010F000FFF748FB01210220FFF744FB01210520F7",
":10110000FFF740FB3E48FFF7ADFB3E48FFF7B0FB63",
":101110003D48FFF7B3FB3D48FFF7B6FB0020FFF764",
":1011200001FB0120FFF7FEFA0220FFF7FBFA052082",
":10113000FFF7F8FA002410E0012221460020FFF713",
":10114000E1FB002221461046FFF78EFC00222146DB",
":101150001046FFF741FC0134E4B2072CECD9092416",
":1011600015E0012221461046FFF7CCFB0022214664",
":101170000120FFF779FC002221460120FFF72CFC1B",
":10118000012221461046FFF7DFFB0134E4B20F2CA9",
":10119000E7D90620FFF7B2FC0720FFF7AFFC0820D5",
":1011A000FFF7ACFC1720FFF7A9FC1AE03B2B18D186",
":1011B000174B00221A70174A13780133DBB21370F1",
":1011C0003A2B0ED9144A13780133DBB21370114A4B",
":1011D00000211170162B04D90F4B197001E0FFF795",
":1011E0007BFE0E4B1B78002BF9D1FFF775FE084BE9",
":1011F0001B783A2BDAD80133054A1370F1E700BFA8",
":10120000510C0008750C0008A10C0008BD0D000869",
":101210004101002043010020440100204001002042",
":10122000014B1868704700BF1C00002030B5141E29",
":1012300005469BB0184605DA8B232B604FF0FF3034",
":101240001BB030BD4FF40273ADF80C3014BF04F185",
":10125000FF332346029305934FF6FF7300910491E9",
":10126000ADF80E3002461E9B6946284600F072F823",
":10127000431CBCBF8B232B60002CE1D0009B0022C1",
":101280001A70DDE707B5009313460A460146034886",
":101290000068FFF7CBFF03B05DF804FB1C000020E3",
":1012A0002DE9F0478E689E4282460C46904699464C",
":1012B00037D88A8912F4906F31D0256809696F1A7E",
":1012C0006569022305EB450595FBF3F509F101037B",
":1012D0003B449D4238BF1D46530530D5294600F09A",
":1012E00079FB064650B90C23CAF80030A38943F0B5",
":1012F0004003A3814FF0FF30BDE8F0873A462169F3",
":1013000000F0F6FAA38923F4906343F08003A381ED",
":10131000266165613E44ED1B2660A5604E464E4544",
":1013200000D94E4632464146206800F0ECFAA368E8",
":101330009B1BA36023681E4426600020DCE72A462E",
":1013400000F0A2FB06460028E2D12169504600F0D9",
":10135000F3FAC8E72DE9F04F9DB0804603938B89DF",
":101360001D060C4616460FD50B696BB9402100F0DF",
":1013700031FB2060206128B90C23C8F800304FF001",
":10138000FF30C7E0402363610023099320238DF8D9",
":10139000293030238DF82A304FF0010B37463D4677",
":1013A00015F8013B0BB1252B3ED1B7EB060A0BD04C",
":1013B0005346324621464046FFF772FF013000F0A7",
":1013C000A480099B534409933B78002B00F09D8037",
":1013D00000234FF0FF32CDE90523049307938DF8E6",
":1013E00053301A932F46052217F8011B4F4800F07F",
":1013F0002FFA049BD0B9D90644BF20228DF8532080",
":101400001A0744BF2B228DF853202A782A2A15D098",
":10141000079A2F4600200A25394611F8013B303B38",
":10142000092B4DD9B8B10FE02F46B8E73F4A801AD3",
":101430000BFA00F0184304903D46D3E7039A111DC0",
":1014400012680391002A01DB079204E0524243F044",
":101450000203079204933B782E2B0CD17B782A2B26",
":1014600033D1039B1A1D1B680392002BB8BF4FF0AA",
":10147000FF33023705932E4D39780322284600F0BA",
":10148000E7F938B14023401B03FA00F0049B034303",
":1014900001370493397827488DF8281006227E1CDE",
":1014A00000F0D6F9002838D0234B13BB039B073339",
":1014B00023F0070308330393099B4B4409936DE71B",
":1014C00005FB023201200F46A6E7002301370593F2",
":1014D00019460A25384610F8012B303A092A03D953",
":1014E000002BC8D00591C6E705FB01210123074663",
":1014F000F0E703AB00932246104B04A94046AFF33C",
":101500000080B0F1FF3F8146D6D1A3895B063FF54D",
":1015100036AF09981DB0BDE8F08F03AB00932246AB",
":10152000064B04A9404600F081F8EAE7601C000879",
":10153000661C00086A1C000800000000A1120008D8",
":101540002DE9F04791461F468A680B69DDF8208037",
":101550009342B8BF1346C9F8003091F843200646BD",
":101560000C4612B10133C9F800302368990642BF16",
":10157000D9F800300233C9F80030256815F00605A7",
":1015800007D104F1190AE368D9F800209B1AAB428D",
":1015900028DC94F843302268003318BF01239206F8",
":1015A0002DD404F1430239463046C047013020D0E3",
":1015B0002368E568D9F8002003F00603042B08BF70",
":1015C000AD1AA36822690CBF25EAE5750025934290",
":1015D000C4BF9B1AED184FF000091A344D451AD1BB",
":1015E000002008E00123524639463046C04701300A",
":1015F00003D14FF0FF30BDE8F0870135C3E7E118B4",
":101600005A1C302081F84300224494F8451082F897",
":1016100043100233C5E70123224639463046C0470E",
":101620000130E6D009F10109D8E700002DE9F043C7",
":1016300001F1430C0C46097E85B06E29174606461B",
":1016400098460C9A00F0B38022D8632936D00AD885",
":10165000002900F0B980582900F0838004F1420588",
":1016600084F8421032E0642901D06929F6D120685B",
":101670001368050603F104012AD51B681160002BCD",
":1016800003DA2D225B4284F843206F480A2239E0B6",
":10169000732900F09D8008D86F2920D07029DDD1F2",
":1016A000236843F02003236003E0752917D07829CD",
":1016B000D4D1782384F84530644855E01368191D67",
":1016C0001B68116004F1420584F8423001238CE06C",
":1016D0001B68116010F0400F18BF1BB2CFE71368F2",
":1016E0002568181D1060280601D51B6802E06806F1",
":1016F000FBD51B8854486F2914BF0A2208220021F9",
":1017000084F843106568A560002DC0F295802168BB",
":1017100021F004012160002B3DD1002D40F08E808E",
":101720006546082A0BD12368DB0708D52369626860",
":101730009A42DEBF302305F8013C05F1FF35ACEBE2",
":1017400005032361CDF800803B4603AA21463046BD",
":10175000FFF7F6FE01304DD14FF0FF3005B0BDE888",
":10176000F083394884F84510136821681D1D1B68F3",
":1017700015600A060BD5CA0744BF41F0200121605D",
":101780001BB9226822F0200222601022B7E74D0622",
":1017900048BF9BB2EFE76546B3FBF2F102FB1133A2",
":1017A000C35C05F8013D0B460029F5D1B9E7136884",
":1017B00025686169181D106028061B6801D519602D",
":1017C00002E06A06FBD51980002323616546B9E76C",
":1017D0001368191D11601D6862680021284600F019",
":1017E00037F808B1401B606063682361002384F808",
":1017F0004330A7E723692A4639463046C0470130BF",
":10180000AAD023689B0713D4E068039B9842B8BF13",
":101810001846A3E701234A4639463046C0470130FF",
":101820009AD00135E368039A9B1AAB42F2DCEBE7EE",
":10183000002504F11909F5E7002BACD1037884F8F1",
":10184000423004F142056CE7711C0008821C00085C",
":1018500001F0FF01102A2BDB10F0070F08D010F861",
":10186000013B013A8B422DD010F0070F42B3F6D165",
":10187000F0B441EA012141EA014122F007047FF07E",
":1018800000070023F0E80256083C85EA010586EAD5",
":10189000010685FA47F5A3FA87F586FA47F6A5FA11",
":1018A00087F68EB9EED1F0BC01F0FF0102F007021D",
":1018B00032B110F8013B013A83EA010313B1F8D1C8",
":1018C0000020704701387047002D06BF35460338A9",
":1018D000073815F0010F07D1013015F4807F02BFE2",
":1018E000013015F4C03F0130F0BC0138704700BF33",
":1018F00010B5431E0A44914200D110BD11F8014BAE",
":1019000003F8014FF7E7884210B501EB020307D84F",
":10191000421E99420AD011F8014B02F8014FF8E734",
":101920008342F5D98118D21AD34200D110BD13F8E1",
":10193000014D01F8014DF7E738B50546002945D0BE",
":1019400051F8043C0C1F002BB8BFE41800F0D2F88B",
":101950001F4A1368104633B9636014602846BDE817",
":10196000384000F0C8B8A3420CD9216862189342ED",
":1019700004BF1A685B68636004BF52182260046089",
":10198000ECE713465A680AB1A242FAD91968581806",
":10199000A0420BD120680144581882421960DDD161",
":1019A000106852685A6001441960D7E702D90C23C5",
":1019B0002B60D3E7206821188A4204BF116852685F",
":1019C000626004BF091821605C60C7E738BD00BFD2",
":1019D0003401002070B5CD1C25F0030508350C2D11",
":1019E00038BF0C25002D064601DBA94203D90C2384",
":1019F0003360002070BD00F07DF8214A1468214654",
":101A000091B9204C23681BB9304600F063F8206080",
":101A10002946304600F05EF8431C24D10C23336085",
":101A2000304600F068F8E4E70B685B1B18D40B2B1A",
":101A30000FD90B60CD50CC18304600F05CF804F1A3",
":101A40000B00231D20F00700C31AD3D05A42E250E6",
":101A5000D0E78C424B6816BF636013600C46EBE71F",
":101A60000C464968CCE7C41C24F00304A04205D00E",
":101A7000211A304600F02EF80130CFD02560DBE788",
":101A80003401002038010020F8B5074614460E4600",
":101A900021B91146BDE8F840FFF79CBF22B9FFF716",
":101AA0004BFF25462846F8BD00F026F8A0420FD28D",
":101AB00021463846FFF78EFF05460028F2D0314612",
":101AC0002246FFF715FF31463846FFF735FFE9E7B5",
":101AD0003546E7E738B5064C00230546084623603F",
":101AE000FEF7A0FC431C02D1236803B12B6038BD74",
":101AF0003C0100207047704751F8043C181F002B30",
":101B0000BCBF0B58C0187047537461636B2066727A",
":101B1000616D653A0A000000205230203D202025EA",
":101B20003038580A00000000205231203D20202586",
":101B30003038580A00000000205232203D20202575",
":101B40003038580A00000000205233203D20202564",
":101B50003038580A0000000020523132203D202544",
":101B60003038580A00000000204C52203D2020252B",
":101B70003038580A00000000205043203D20202526",
":101B80003038580A0000000020505352203D2025D4",
":101B90003038580A000000004653522F4641523A4E",
":101BA0000A0000002043465352203D2020253038B3",
":101BB000580A00002048465352203D202025303846",
":101BC000580A00002044465352203D20202530383A",
":101BD000580A00002041465352203D20202530382D",
":101BE000580A0000204D4D464152203D20253038F6",
":101BF000580A00002042464152203D20202530381E",
":101C0000580A00004D6973630A000000204C522FEF",
":101C10004558435F52455455524E3D202530385863",
":101C20000A0000005B486172644661756C745D0A6D",
":101C3000000000005B4275734661756C745D0A00BC",
":101C40005B55736167654661756C745D0A000000E1",
":101C5000000000000000000001020304060708095C",
":101C6000232D302B2000686C4C0065666745464785",
":101C70000030313233343536373839414243444508",
":101C80004600303132333435363738396162636477",
":031C900065660086",
":101C9400785634128C000020000000000024F40068",
":101CA4003F065B4F666D7D077F6FFFFF20000020BE",
":101CB4000000000000000000000000000000000020",
":101CC4000000000000000000000000000000000010",
":101CD4000000000000000000000000000000000000",
":101CE40000000000000000000000000000000000F0",
":101CF40000000000000000000000000000000000E0",
":101D040000000000000000000000000000000000CF",
":041D14003254769837",
":040000050800019559",
":00000001FF"};